:100000000C9472000C948B000C948B000C948B005D
:100010000C948B000C948B000C948B000C948B0034
:100020000C948B000C948B000C948B000C948B0024
:100030000C948B000C948B000C948B000C948B0014
:100040000C948B000C948B000C948B000C948B0004
:100050000C948B000C948B000C948B000C948B00F4
:100060000C948B000C948B000C948B000C948B00E4
:100070000C948B000C948B000C948B000C948B00D4
:100080000C948B000C948B000C948B000C948B00C4
:100090000C948B000C948B000C948B000C948B00B4
:1000A0000C948B000C948B000C948B000C948B00A4
:1000B0000C948B000C948B000C948B000C948B0094
:1000C0000C948B000C948B000C948B000C948B0084
:1000D0000C948B000C948B000C948B000C948B0074
:1000E0000C948B0011241FBECFEFD1E2DEBFCDBF39
:1000F00000E00CBF12E0A0E0B2E0E6E8F1E000E0D2
:100100000BBF02C007900D92A030B107D9F70E9433
:10011000A2000C94C1000C940000DF93CF93CDB7E4
:10012000DEB7A7E2B0E0E7E2F0E080818F7B8C935E
:10013000A4E2B0E0E4E2F0E0808180688C93CF91AB
:10014000DF910895DF93CF93CDB7DEB70E948D0086
:10015000E6E2F0E08081882F90E080749070009754
:1001600041F4A5E2B0E0E5E2F0E0808180688C93A4
:10017000EFCFA5E2B0E0E5E2F0E080818F778C93ED
:06018000E7CFF894FFCF69
:00000001FF
