:100000000C9472000C948B000C948B000C948B005D
:100010000C948B000C948B000C948B000C948B0034
:100020000C948B000C948B000C948B000C948B0024
:100030000C948B000C948B000C948B000C948B0014
:100040000C948B000C948B000C948B000C948B0004
:100050000C948B000C948B000C948B000C948B00F4
:100060000C948B000C948B000C948B000C948B00E4
:100070000C948B000C948B000C948B000C948B00D4
:100080000C948B000C948B000C948B000C948B00C4
:100090000C948B000C948B000C948B000C948B00B4
:1000A0000C948B000C948B000C948B000C948B00A4
:1000B0000C948B000C948B000C948B000C948B0094
:1000C0000C948B000C948B000C948B000C948B0084
:1000D0000C948B000C948B000C948B000C948B0074
:1000E0000C948B0011241FBECFEFD1E2DEBFCDBF39
:1000F00000E00CBF12E0A0E0B2E0E6E8F1E000E0D2
:100100000BBF02C007900D92A030B107D9F70E9433
:10011000A2000C94C1000C940000DF93CF93CDB7E4
:10012000DEB7A3E3B0E0E3E3F0E080818D7F8C9362
:10013000A3E3B0E0E3E3F0E0808181608C93CF91B2
:10014000DF910895DF93CF93CDB7DEB70E948D0086
:10015000E2E3F0E08081882F90E082709070009759
:1001600041F4A4E3B0E0E4E3F0E0808181608C93AB
:10017000EFCFA4E3B0E0E4E3F0E080818E7F8C93E6
:06018000E7CFF894FFCF69
:00000001FF
